{
	"contracts/web3demo.sol": {
		"web3contract": {
			"abi": [
				{
					"inputs": [],
					"name": "printhelloworld",
					"outputs": [
						{
							"internalType": "string",
							"name": "",
							"type": "string"
						}
					],
					"stateMutability": "view",
					"type": "function"
				},
				{
					"inputs": [
						{
							"internalType": "string",
							"name": "worlds",
							"type": "string"
						}
					],
					"name": "writestatement",
					"outputs": [
						{
							"internalType": "bool",
							"name": "",
							"type": "bool"
						}
					],
					"stateMutability": "nonpayable",
					"type": "function"
				}
			],
			"devdoc": {
				"kind": "dev",
				"methods": {},
				"version": 1
			},
			"evm": {
				"assembly": "    /* \"contracts/web3demo.sol\":24:285  contract web3contract {... */\n  mstore(0x40, 0x80)\n  callvalue\n  dup1\n  iszero\n  tag_1\n  jumpi\n  0x00\n  dup1\n  revert\ntag_1:\n  pop\n  dataSize(sub_0)\n  dup1\n  dataOffset(sub_0)\n  0x00\n  codecopy\n  0x00\n  return\nstop\n\nsub_0: assembly {\n        /* \"contracts/web3demo.sol\":24:285  contract web3contract {... */\n      mstore(0x40, 0x80)\n      callvalue\n      dup1\n      iszero\n      tag_1\n      jumpi\n      0x00\n      dup1\n      revert\n    tag_1:\n      pop\n      jumpi(tag_2, lt(calldatasize, 0x04))\n      shr(0xe0, calldataload(0x00))\n      dup1\n      0x319bf8b5\n      eq\n      tag_3\n      jumpi\n      dup1\n      0xb4e6b713\n      eq\n      tag_4\n      jumpi\n    tag_2:\n      0x00\n      dup1\n      revert\n        /* \"contracts/web3demo.sol\":186:283  function printhelloworld() public view... */\n    tag_3:\n      tag_5\n      tag_6\n      jump\t// in\n    tag_5:\n      mload(0x40)\n      tag_7\n      swap2\n      swap1\n      tag_8\n      jump\t// in\n    tag_7:\n      mload(0x40)\n      dup1\n      swap2\n      sub\n      swap1\n      return\n        /* \"contracts/web3demo.sol\":75:181  function writestatement(string  memory worlds)... */\n    tag_4:\n      tag_9\n      0x04\n      dup1\n      calldatasize\n      sub\n      dup2\n      add\n      swap1\n      tag_10\n      swap2\n      swap1\n      tag_11\n      jump\t// in\n    tag_10:\n      tag_12\n      jump\t// in\n    tag_9:\n      mload(0x40)\n      tag_13\n      swap2\n      swap1\n      tag_14\n      jump\t// in\n    tag_13:\n      mload(0x40)\n      dup1\n      swap2\n      sub\n      swap1\n      return\n        /* \"contracts/web3demo.sol\":186:283  function printhelloworld() public view... */\n    tag_6:\n        /* \"contracts/web3demo.sol\":238:251  string memory */\n      0x60\n        /* \"contracts/web3demo.sol\":268:277  statement */\n      0x00\n        /* \"contracts/web3demo.sol\":261:277  return statement */\n      dup1\n      sload\n      tag_16\n      swap1\n      tag_17\n      jump\t// in\n    tag_16:\n      dup1\n      0x1f\n      add\n      0x20\n      dup1\n      swap2\n      div\n      mul\n      0x20\n      add\n      mload(0x40)\n      swap1\n      dup2\n      add\n      0x40\n      mstore\n      dup1\n      swap3\n      swap2\n      swap1\n      dup2\n      dup2\n      mstore\n      0x20\n      add\n      dup3\n      dup1\n      sload\n      tag_18\n      swap1\n      tag_17\n      jump\t// in\n    tag_18:\n      dup1\n      iszero\n      tag_19\n      jumpi\n      dup1\n      0x1f\n      lt\n      tag_20\n      jumpi\n      0x0100\n      dup1\n      dup4\n      sload\n      div\n      mul\n      dup4\n      mstore\n      swap2\n      0x20\n      add\n      swap2\n      jump(tag_19)\n    tag_20:\n      dup3\n      add\n      swap2\n      swap1\n      0x00\n      mstore\n      keccak256(0x00, 0x20)\n      swap1\n    tag_21:\n      dup2\n      sload\n      dup2\n      mstore\n      swap1\n      0x01\n      add\n      swap1\n      0x20\n      add\n      dup1\n      dup4\n      gt\n      tag_21\n      jumpi\n      dup3\n      swap1\n      sub\n      0x1f\n      and\n      dup3\n      add\n      swap2\n    tag_19:\n      pop\n      pop\n      pop\n      pop\n      pop\n      swap1\n      pop\n        /* \"contracts/web3demo.sol\":186:283  function printhelloworld() public view... */\n      swap1\n      jump\t// out\n        /* \"contracts/web3demo.sol\":75:181  function writestatement(string  memory worlds)... */\n    tag_12:\n        /* \"contracts/web3demo.sol\":143:147  bool */\n      0x00\n        /* \"contracts/web3demo.sol\":169:175  worlds */\n      dup2\n        /* \"contracts/web3demo.sol\":157:166  statement */\n      0x00\n        /* \"contracts/web3demo.sol\":157:175  statement = worlds */\n      swap1\n      dup1\n      mload\n      swap1\n      0x20\n      add\n      swap1\n      tag_23\n      swap3\n      swap2\n      swap1\n      tag_24\n      jump\t// in\n    tag_23:\n      pop\n        /* \"contracts/web3demo.sol\":75:181  function writestatement(string  memory worlds)... */\n      swap2\n      swap1\n      pop\n      jump\t// out\n    tag_24:\n      dup3\n      dup1\n      sload\n      tag_25\n      swap1\n      tag_17\n      jump\t// in\n    tag_25:\n      swap1\n      0x00\n      mstore\n      keccak256(0x00, 0x20)\n      swap1\n      0x1f\n      add\n      0x20\n      swap1\n      div\n      dup2\n      add\n      swap3\n      dup3\n      tag_27\n      jumpi\n      0x00\n      dup6\n      sstore\n      jump(tag_26)\n    tag_27:\n      dup3\n      0x1f\n      lt\n      tag_28\n      jumpi\n      dup1\n      mload\n      not(0xff)\n      and\n      dup4\n      dup1\n      add\n      or\n      dup6\n      sstore\n      jump(tag_26)\n    tag_28:\n      dup3\n      dup1\n      add\n      0x01\n      add\n      dup6\n      sstore\n      dup3\n      iszero\n      tag_26\n      jumpi\n      swap2\n      dup3\n      add\n    tag_29:\n      dup3\n      dup2\n      gt\n      iszero\n      tag_30\n      jumpi\n      dup3\n      mload\n      dup3\n      sstore\n      swap2\n      0x20\n      add\n      swap2\n      swap1\n      0x01\n      add\n      swap1\n      jump(tag_29)\n    tag_30:\n    tag_26:\n      pop\n      swap1\n      pop\n      tag_31\n      swap2\n      swap1\n      tag_32\n      jump\t// in\n    tag_31:\n      pop\n      swap1\n      jump\t// out\n    tag_32:\n    tag_33:\n      dup1\n      dup3\n      gt\n      iszero\n      tag_34\n      jumpi\n      0x00\n      dup2\n      0x00\n      swap1\n      sstore\n      pop\n      0x01\n      add\n      jump(tag_33)\n    tag_34:\n      pop\n      swap1\n      jump\t// out\n        /* \"#utility.yul\":7:351   */\n    tag_36:\n      0x00\n        /* \"#utility.yul\":110:175   */\n      tag_38\n        /* \"#utility.yul\":125:174   */\n      tag_39\n        /* \"#utility.yul\":167:173   */\n      dup5\n        /* \"#utility.yul\":125:174   */\n      tag_40\n      jump\t// in\n    tag_39:\n        /* \"#utility.yul\":110:175   */\n      tag_41\n      jump\t// in\n    tag_38:\n        /* \"#utility.yul\":101:175   */\n      swap1\n      pop\n        /* \"#utility.yul\":198:204   */\n      dup3\n        /* \"#utility.yul\":191:196   */\n      dup2\n        /* \"#utility.yul\":184:205   */\n      mstore\n        /* \"#utility.yul\":236:240   */\n      0x20\n        /* \"#utility.yul\":229:234   */\n      dup2\n        /* \"#utility.yul\":225:241   */\n      add\n        /* \"#utility.yul\":274:277   */\n      dup5\n        /* \"#utility.yul\":265:271   */\n      dup5\n        /* \"#utility.yul\":260:263   */\n      dup5\n        /* \"#utility.yul\":256:272   */\n      add\n        /* \"#utility.yul\":253:278   */\n      gt\n        /* \"#utility.yul\":250:252   */\n      iszero\n      tag_42\n      jumpi\n        /* \"#utility.yul\":291:292   */\n      0x00\n        /* \"#utility.yul\":288:289   */\n      dup1\n        /* \"#utility.yul\":281:293   */\n      revert\n        /* \"#utility.yul\":250:252   */\n    tag_42:\n        /* \"#utility.yul\":304:345   */\n      tag_43\n        /* \"#utility.yul\":338:344   */\n      dup5\n        /* \"#utility.yul\":333:336   */\n      dup3\n        /* \"#utility.yul\":328:331   */\n      dup6\n        /* \"#utility.yul\":304:345   */\n      tag_44\n      jump\t// in\n    tag_43:\n        /* \"#utility.yul\":91:351   */\n      pop\n      swap4\n      swap3\n      pop\n      pop\n      pop\n      jump\t// out\n        /* \"#utility.yul\":371:644   */\n    tag_45:\n      0x00\n        /* \"#utility.yul\":476:479   */\n      dup3\n        /* \"#utility.yul\":469:473   */\n      0x1f\n        /* \"#utility.yul\":461:467   */\n      dup4\n        /* \"#utility.yul\":457:474   */\n      add\n        /* \"#utility.yul\":453:480   */\n      slt\n        /* \"#utility.yul\":443:445   */\n      tag_47\n      jumpi\n        /* \"#utility.yul\":494:495   */\n      0x00\n        /* \"#utility.yul\":491:492   */\n      dup1\n        /* \"#utility.yul\":484:496   */\n      revert\n        /* \"#utility.yul\":443:445   */\n    tag_47:\n        /* \"#utility.yul\":534:540   */\n      dup2\n        /* \"#utility.yul\":521:541   */\n      calldataload\n        /* \"#utility.yul\":559:638   */\n      tag_48\n        /* \"#utility.yul\":634:637   */\n      dup5\n        /* \"#utility.yul\":626:632   */\n      dup3\n        /* \"#utility.yul\":619:623   */\n      0x20\n        /* \"#utility.yul\":611:617   */\n      dup7\n        /* \"#utility.yul\":607:624   */\n      add\n        /* \"#utility.yul\":559:638   */\n      tag_36\n      jump\t// in\n    tag_48:\n        /* \"#utility.yul\":550:638   */\n      swap2\n      pop\n        /* \"#utility.yul\":433:644   */\n      pop\n      swap3\n      swap2\n      pop\n      pop\n      jump\t// out\n        /* \"#utility.yul\":650:1025   */\n    tag_11:\n      0x00\n        /* \"#utility.yul\":768:770   */\n      0x20\n        /* \"#utility.yul\":756:765   */\n      dup3\n        /* \"#utility.yul\":747:754   */\n      dup5\n        /* \"#utility.yul\":743:766   */\n      sub\n        /* \"#utility.yul\":739:771   */\n      slt\n        /* \"#utility.yul\":736:738   */\n      iszero\n      tag_50\n      jumpi\n        /* \"#utility.yul\":784:785   */\n      0x00\n        /* \"#utility.yul\":781:782   */\n      dup1\n        /* \"#utility.yul\":774:786   */\n      revert\n        /* \"#utility.yul\":736:738   */\n    tag_50:\n        /* \"#utility.yul\":855:856   */\n      0x00\n        /* \"#utility.yul\":844:853   */\n      dup3\n        /* \"#utility.yul\":840:857   */\n      add\n        /* \"#utility.yul\":827:858   */\n      calldataload\n        /* \"#utility.yul\":885:903   */\n      0xffffffffffffffff\n        /* \"#utility.yul\":877:883   */\n      dup2\n        /* \"#utility.yul\":874:904   */\n      gt\n        /* \"#utility.yul\":871:873   */\n      iszero\n      tag_51\n      jumpi\n        /* \"#utility.yul\":917:918   */\n      0x00\n        /* \"#utility.yul\":914:915   */\n      dup1\n        /* \"#utility.yul\":907:919   */\n      revert\n        /* \"#utility.yul\":871:873   */\n    tag_51:\n        /* \"#utility.yul\":945:1008   */\n      tag_52\n        /* \"#utility.yul\":1000:1007   */\n      dup5\n        /* \"#utility.yul\":991:997   */\n      dup3\n        /* \"#utility.yul\":980:989   */\n      dup6\n        /* \"#utility.yul\":976:998   */\n      add\n        /* \"#utility.yul\":945:1008   */\n      tag_45\n      jump\t// in\n    tag_52:\n        /* \"#utility.yul\":935:1008   */\n      swap2\n      pop\n        /* \"#utility.yul\":798:1018   */\n      pop\n        /* \"#utility.yul\":726:1025   */\n      swap3\n      swap2\n      pop\n      pop\n      jump\t// out\n        /* \"#utility.yul\":1031:1140   */\n    tag_53:\n        /* \"#utility.yul\":1112:1133   */\n      tag_55\n        /* \"#utility.yul\":1127:1132   */\n      dup2\n        /* \"#utility.yul\":1112:1133   */\n      tag_56\n      jump\t// in\n    tag_55:\n        /* \"#utility.yul\":1107:1110   */\n      dup3\n        /* \"#utility.yul\":1100:1134   */\n      mstore\n        /* \"#utility.yul\":1090:1140   */\n      pop\n      pop\n      jump\t// out\n        /* \"#utility.yul\":1146:1510   */\n    tag_57:\n      0x00\n        /* \"#utility.yul\":1262:1301   */\n      tag_59\n        /* \"#utility.yul\":1295:1300   */\n      dup3\n        /* \"#utility.yul\":1262:1301   */\n      tag_60\n      jump\t// in\n    tag_59:\n        /* \"#utility.yul\":1317:1388   */\n      tag_61\n        /* \"#utility.yul\":1381:1387   */\n      dup2\n        /* \"#utility.yul\":1376:1379   */\n      dup6\n        /* \"#utility.yul\":1317:1388   */\n      tag_62\n      jump\t// in\n    tag_61:\n        /* \"#utility.yul\":1310:1388   */\n      swap4\n      pop\n        /* \"#utility.yul\":1397:1449   */\n      tag_63\n        /* \"#utility.yul\":1442:1448   */\n      dup2\n        /* \"#utility.yul\":1437:1440   */\n      dup6\n        /* \"#utility.yul\":1430:1434   */\n      0x20\n        /* \"#utility.yul\":1423:1428   */\n      dup7\n        /* \"#utility.yul\":1419:1435   */\n      add\n        /* \"#utility.yul\":1397:1449   */\n      tag_64\n      jump\t// in\n    tag_63:\n        /* \"#utility.yul\":1474:1503   */\n      tag_65\n        /* \"#utility.yul\":1496:1502   */\n      dup2\n        /* \"#utility.yul\":1474:1503   */\n      tag_66\n      jump\t// in\n    tag_65:\n        /* \"#utility.yul\":1469:1472   */\n      dup5\n        /* \"#utility.yul\":1465:1504   */\n      add\n        /* \"#utility.yul\":1458:1504   */\n      swap2\n      pop\n        /* \"#utility.yul\":1238:1510   */\n      pop\n      swap3\n      swap2\n      pop\n      pop\n      jump\t// out\n        /* \"#utility.yul\":1516:1726   */\n    tag_14:\n      0x00\n        /* \"#utility.yul\":1641:1643   */\n      0x20\n        /* \"#utility.yul\":1630:1639   */\n      dup3\n        /* \"#utility.yul\":1626:1644   */\n      add\n        /* \"#utility.yul\":1618:1644   */\n      swap1\n      pop\n        /* \"#utility.yul\":1654:1719   */\n      tag_68\n        /* \"#utility.yul\":1716:1717   */\n      0x00\n        /* \"#utility.yul\":1705:1714   */\n      dup4\n        /* \"#utility.yul\":1701:1718   */\n      add\n        /* \"#utility.yul\":1692:1698   */\n      dup5\n        /* \"#utility.yul\":1654:1719   */\n      tag_53\n      jump\t// in\n    tag_68:\n        /* \"#utility.yul\":1608:1726   */\n      swap3\n      swap2\n      pop\n      pop\n      jump\t// out\n        /* \"#utility.yul\":1732:2045   */\n    tag_8:\n      0x00\n        /* \"#utility.yul\":1883:1885   */\n      0x20\n        /* \"#utility.yul\":1872:1881   */\n      dup3\n        /* \"#utility.yul\":1868:1886   */\n      add\n        /* \"#utility.yul\":1860:1886   */\n      swap1\n      pop\n        /* \"#utility.yul\":1932:1941   */\n      dup2\n        /* \"#utility.yul\":1926:1930   */\n      dup2\n        /* \"#utility.yul\":1922:1942   */\n      sub\n        /* \"#utility.yul\":1918:1919   */\n      0x00\n        /* \"#utility.yul\":1907:1916   */\n      dup4\n        /* \"#utility.yul\":1903:1920   */\n      add\n        /* \"#utility.yul\":1896:1943   */\n      mstore\n        /* \"#utility.yul\":1960:2038   */\n      tag_70\n        /* \"#utility.yul\":2033:2037   */\n      dup2\n        /* \"#utility.yul\":2024:2030   */\n      dup5\n        /* \"#utility.yul\":1960:2038   */\n      tag_57\n      jump\t// in\n    tag_70:\n        /* \"#utility.yul\":1952:2038   */\n      swap1\n      pop\n        /* \"#utility.yul\":1850:2045   */\n      swap3\n      swap2\n      pop\n      pop\n      jump\t// out\n        /* \"#utility.yul\":2051:2334   */\n    tag_41:\n      0x00\n        /* \"#utility.yul\":2117:2119   */\n      0x40\n        /* \"#utility.yul\":2111:2120   */\n      mload\n        /* \"#utility.yul\":2101:2120   */\n      swap1\n      pop\n        /* \"#utility.yul\":2159:2163   */\n      dup2\n        /* \"#utility.yul\":2151:2157   */\n      dup2\n        /* \"#utility.yul\":2147:2164   */\n      add\n        /* \"#utility.yul\":2266:2272   */\n      dup2\n        /* \"#utility.yul\":2254:2264   */\n      dup2\n        /* \"#utility.yul\":2251:2273   */\n      lt\n        /* \"#utility.yul\":2230:2248   */\n      0xffffffffffffffff\n        /* \"#utility.yul\":2218:2228   */\n      dup3\n        /* \"#utility.yul\":2215:2249   */\n      gt\n        /* \"#utility.yul\":2212:2274   */\n      or\n        /* \"#utility.yul\":2209:2211   */\n      iszero\n      tag_72\n      jumpi\n        /* \"#utility.yul\":2277:2295   */\n      tag_73\n      tag_74\n      jump\t// in\n    tag_73:\n        /* \"#utility.yul\":2209:2211   */\n    tag_72:\n        /* \"#utility.yul\":2317:2327   */\n      dup1\n        /* \"#utility.yul\":2313:2315   */\n      0x40\n        /* \"#utility.yul\":2306:2328   */\n      mstore\n        /* \"#utility.yul\":2091:2334   */\n      pop\n      swap2\n      swap1\n      pop\n      jump\t// out\n        /* \"#utility.yul\":2340:2672   */\n    tag_40:\n      0x00\n        /* \"#utility.yul\":2492:2510   */\n      0xffffffffffffffff\n        /* \"#utility.yul\":2484:2490   */\n      dup3\n        /* \"#utility.yul\":2481:2511   */\n      gt\n        /* \"#utility.yul\":2478:2480   */\n      iszero\n      tag_76\n      jumpi\n        /* \"#utility.yul\":2514:2532   */\n      tag_77\n      tag_74\n      jump\t// in\n    tag_77:\n        /* \"#utility.yul\":2478:2480   */\n    tag_76:\n        /* \"#utility.yul\":2599:2603   */\n      0x1f\n        /* \"#utility.yul\":2595:2604   */\n      not\n        /* \"#utility.yul\":2588:2592   */\n      0x1f\n        /* \"#utility.yul\":2580:2586   */\n      dup4\n        /* \"#utility.yul\":2576:2593   */\n      add\n        /* \"#utility.yul\":2572:2605   */\n      and\n        /* \"#utility.yul\":2564:2605   */\n      swap1\n      pop\n        /* \"#utility.yul\":2660:2664   */\n      0x20\n        /* \"#utility.yul\":2654:2658   */\n      dup2\n        /* \"#utility.yul\":2650:2665   */\n      add\n        /* \"#utility.yul\":2642:2665   */\n      swap1\n      pop\n        /* \"#utility.yul\":2407:2672   */\n      swap2\n      swap1\n      pop\n      jump\t// out\n        /* \"#utility.yul\":2678:2777   */\n    tag_60:\n      0x00\n        /* \"#utility.yul\":2764:2769   */\n      dup2\n        /* \"#utility.yul\":2758:2770   */\n      mload\n        /* \"#utility.yul\":2748:2770   */\n      swap1\n      pop\n        /* \"#utility.yul\":2737:2777   */\n      swap2\n      swap1\n      pop\n      jump\t// out\n        /* \"#utility.yul\":2783:2952   */\n    tag_62:\n      0x00\n        /* \"#utility.yul\":2901:2907   */\n      dup3\n        /* \"#utility.yul\":2896:2899   */\n      dup3\n        /* \"#utility.yul\":2889:2908   */\n      mstore\n        /* \"#utility.yul\":2941:2945   */\n      0x20\n        /* \"#utility.yul\":2936:2939   */\n      dup3\n        /* \"#utility.yul\":2932:2946   */\n      add\n        /* \"#utility.yul\":2917:2946   */\n      swap1\n      pop\n        /* \"#utility.yul\":2879:2952   */\n      swap3\n      swap2\n      pop\n      pop\n      jump\t// out\n        /* \"#utility.yul\":2958:3048   */\n    tag_56:\n      0x00\n        /* \"#utility.yul\":3035:3040   */\n      dup2\n        /* \"#utility.yul\":3028:3041   */\n      iszero\n        /* \"#utility.yul\":3021:3042   */\n      iszero\n        /* \"#utility.yul\":3010:3042   */\n      swap1\n      pop\n        /* \"#utility.yul\":3000:3048   */\n      swap2\n      swap1\n      pop\n      jump\t// out\n        /* \"#utility.yul\":3054:3208   */\n    tag_44:\n        /* \"#utility.yul\":3138:3144   */\n      dup3\n        /* \"#utility.yul\":3133:3136   */\n      dup2\n        /* \"#utility.yul\":3128:3131   */\n      dup4\n        /* \"#utility.yul\":3115:3145   */\n      calldatacopy\n        /* \"#utility.yul\":3200:3201   */\n      0x00\n        /* \"#utility.yul\":3191:3197   */\n      dup4\n        /* \"#utility.yul\":3186:3189   */\n      dup4\n        /* \"#utility.yul\":3182:3198   */\n      add\n        /* \"#utility.yul\":3175:3202   */\n      mstore\n        /* \"#utility.yul\":3105:3208   */\n      pop\n      pop\n      pop\n      jump\t// out\n        /* \"#utility.yul\":3214:3521   */\n    tag_64:\n        /* \"#utility.yul\":3282:3283   */\n      0x00\n        /* \"#utility.yul\":3292:3405   */\n    tag_83:\n        /* \"#utility.yul\":3306:3312   */\n      dup4\n        /* \"#utility.yul\":3303:3304   */\n      dup2\n        /* \"#utility.yul\":3300:3313   */\n      lt\n        /* \"#utility.yul\":3292:3405   */\n      iszero\n      tag_85\n      jumpi\n        /* \"#utility.yul\":3391:3392   */\n      dup1\n        /* \"#utility.yul\":3386:3389   */\n      dup3\n        /* \"#utility.yul\":3382:3393   */\n      add\n        /* \"#utility.yul\":3376:3394   */\n      mload\n        /* \"#utility.yul\":3372:3373   */\n      dup2\n        /* \"#utility.yul\":3367:3370   */\n      dup5\n        /* \"#utility.yul\":3363:3374   */\n      add\n        /* \"#utility.yul\":3356:3395   */\n      mstore\n        /* \"#utility.yul\":3328:3330   */\n      0x20\n        /* \"#utility.yul\":3325:3326   */\n      dup2\n        /* \"#utility.yul\":3321:3331   */\n      add\n        /* \"#utility.yul\":3316:3331   */\n      swap1\n      pop\n        /* \"#utility.yul\":3292:3405   */\n      jump(tag_83)\n    tag_85:\n        /* \"#utility.yul\":3423:3429   */\n      dup4\n        /* \"#utility.yul\":3420:3421   */\n      dup2\n        /* \"#utility.yul\":3417:3430   */\n      gt\n        /* \"#utility.yul\":3414:3416   */\n      iszero\n      tag_86\n      jumpi\n        /* \"#utility.yul\":3503:3504   */\n      0x00\n        /* \"#utility.yul\":3494:3500   */\n      dup5\n        /* \"#utility.yul\":3489:3492   */\n      dup5\n        /* \"#utility.yul\":3485:3501   */\n      add\n        /* \"#utility.yul\":3478:3505   */\n      mstore\n        /* \"#utility.yul\":3414:3416   */\n    tag_86:\n        /* \"#utility.yul\":3263:3521   */\n      pop\n      pop\n      pop\n      pop\n      jump\t// out\n        /* \"#utility.yul\":3527:3847   */\n    tag_17:\n      0x00\n        /* \"#utility.yul\":3608:3609   */\n      0x02\n        /* \"#utility.yul\":3602:3606   */\n      dup3\n        /* \"#utility.yul\":3598:3610   */\n      div\n        /* \"#utility.yul\":3588:3610   */\n      swap1\n      pop\n        /* \"#utility.yul\":3655:3656   */\n      0x01\n        /* \"#utility.yul\":3649:3653   */\n      dup3\n        /* \"#utility.yul\":3645:3657   */\n      and\n        /* \"#utility.yul\":3676:3694   */\n      dup1\n        /* \"#utility.yul\":3666:3668   */\n      tag_88\n      jumpi\n        /* \"#utility.yul\":3732:3736   */\n      0x7f\n        /* \"#utility.yul\":3724:3730   */\n      dup3\n        /* \"#utility.yul\":3720:3737   */\n      and\n        /* \"#utility.yul\":3710:3737   */\n      swap2\n      pop\n        /* \"#utility.yul\":3666:3668   */\n    tag_88:\n        /* \"#utility.yul\":3794:3796   */\n      0x20\n        /* \"#utility.yul\":3786:3792   */\n      dup3\n        /* \"#utility.yul\":3783:3797   */\n      lt\n        /* \"#utility.yul\":3763:3781   */\n      dup2\n        /* \"#utility.yul\":3760:3798   */\n      eq\n        /* \"#utility.yul\":3757:3759   */\n      iszero\n      tag_89\n      jumpi\n        /* \"#utility.yul\":3813:3831   */\n      tag_90\n      tag_91\n      jump\t// in\n    tag_90:\n        /* \"#utility.yul\":3757:3759   */\n    tag_89:\n        /* \"#utility.yul\":3578:3847   */\n      pop\n      swap2\n      swap1\n      pop\n      jump\t// out\n        /* \"#utility.yul\":3853:4033   */\n    tag_91:\n        /* \"#utility.yul\":3901:3978   */\n      0x4e487b7100000000000000000000000000000000000000000000000000000000\n        /* \"#utility.yul\":3898:3899   */\n      0x00\n        /* \"#utility.yul\":3891:3979   */\n      mstore\n        /* \"#utility.yul\":3998:4002   */\n      0x22\n        /* \"#utility.yul\":3995:3996   */\n      0x04\n        /* \"#utility.yul\":3988:4003   */\n      mstore\n        /* \"#utility.yul\":4022:4026   */\n      0x24\n        /* \"#utility.yul\":4019:4020   */\n      0x00\n        /* \"#utility.yul\":4012:4027   */\n      revert\n        /* \"#utility.yul\":4039:4219   */\n    tag_74:\n        /* \"#utility.yul\":4087:4164   */\n      0x4e487b7100000000000000000000000000000000000000000000000000000000\n        /* \"#utility.yul\":4084:4085   */\n      0x00\n        /* \"#utility.yul\":4077:4165   */\n      mstore\n        /* \"#utility.yul\":4184:4188   */\n      0x41\n        /* \"#utility.yul\":4181:4182   */\n      0x04\n        /* \"#utility.yul\":4174:4189   */\n      mstore\n        /* \"#utility.yul\":4208:4212   */\n      0x24\n        /* \"#utility.yul\":4205:4206   */\n      0x00\n        /* \"#utility.yul\":4198:4213   */\n      revert\n        /* \"#utility.yul\":4225:4327   */\n    tag_66:\n      0x00\n        /* \"#utility.yul\":4317:4319   */\n      0x1f\n        /* \"#utility.yul\":4313:4320   */\n      not\n        /* \"#utility.yul\":4308:4310   */\n      0x1f\n        /* \"#utility.yul\":4301:4306   */\n      dup4\n        /* \"#utility.yul\":4297:4311   */\n      add\n        /* \"#utility.yul\":4293:4321   */\n      and\n        /* \"#utility.yul\":4283:4321   */\n      swap1\n      pop\n        /* \"#utility.yul\":4273:4327   */\n      swap2\n      swap1\n      pop\n      jump\t// out\n\n    auxdata: 0xa2646970667358221220a2b46a116e56d6ccad3c4013ba3ac13e665ed9bd26f609e60e7c407f25af7d8064736f6c63430008000033\n}\n",
				"bytecode": {
					"linkReferences": {},
					"object": "608060405234801561001057600080fd5b506104ac806100206000396000f3fe608060405234801561001057600080fd5b50600436106100365760003560e01c8063319bf8b51461003b578063b4e6b71314610059575b600080fd5b610043610089565b60405161005091906102e8565b60405180910390f35b610073600480360381019061006e9190610244565b61011b565b60405161008091906102cd565b60405180910390f35b606060008054610098906103d5565b80601f01602080910402602001604051908101604052809291908181526020018280546100c4906103d5565b80156101115780601f106100e657610100808354040283529160200191610111565b820191906000526020600020905b8154815290600101906020018083116100f457829003601f168201915b5050505050905090565b60008160009080519060200190610133929190610139565b50919050565b828054610145906103d5565b90600052602060002090601f01602090048101928261016757600085556101ae565b82601f1061018057805160ff19168380011785556101ae565b828001600101855582156101ae579182015b828111156101ad578251825591602001919060010190610192565b5b5090506101bb91906101bf565b5090565b5b808211156101d85760008160009055506001016101c0565b5090565b60006101ef6101ea8461033b565b61030a565b90508281526020810184848401111561020757600080fd5b610212848285610393565b509392505050565b600082601f83011261022b57600080fd5b813561023b8482602086016101dc565b91505092915050565b60006020828403121561025657600080fd5b600082013567ffffffffffffffff81111561027057600080fd5b61027c8482850161021a565b91505092915050565b61028e81610387565b82525050565b600061029f8261036b565b6102a98185610376565b93506102b98185602086016103a2565b6102c281610465565b840191505092915050565b60006020820190506102e26000830184610285565b92915050565b600060208201905081810360008301526103028184610294565b905092915050565b6000604051905081810181811067ffffffffffffffff8211171561033157610330610436565b5b8060405250919050565b600067ffffffffffffffff82111561035657610355610436565b5b601f19601f8301169050602081019050919050565b600081519050919050565b600082825260208201905092915050565b60008115159050919050565b82818337600083830152505050565b60005b838110156103c05780820151818401526020810190506103a5565b838111156103cf576000848401525b50505050565b600060028204905060018216806103ed57607f821691505b6020821081141561040157610400610407565b5b50919050565b7f4e487b7100000000000000000000000000000000000000000000000000000000600052602260045260246000fd5b7f4e487b7100000000000000000000000000000000000000000000000000000000600052604160045260246000fd5b6000601f19601f830116905091905056fea2646970667358221220a2b46a116e56d6ccad3c4013ba3ac13e665ed9bd26f609e60e7c407f25af7d8064736f6c63430008000033",
					"opcodes": "PUSH1 0x80 PUSH1 0x40 MSTORE CALLVALUE DUP1 ISZERO PUSH2 0x10 JUMPI PUSH1 0x0 DUP1 REVERT JUMPDEST POP PUSH2 0x4AC DUP1 PUSH2 0x20 PUSH1 0x0 CODECOPY PUSH1 0x0 RETURN INVALID PUSH1 0x80 PUSH1 0x40 MSTORE CALLVALUE DUP1 ISZERO PUSH2 0x10 JUMPI PUSH1 0x0 DUP1 REVERT JUMPDEST POP PUSH1 0x4 CALLDATASIZE LT PUSH2 0x36 JUMPI PUSH1 0x0 CALLDATALOAD PUSH1 0xE0 SHR DUP1 PUSH4 0x319BF8B5 EQ PUSH2 0x3B JUMPI DUP1 PUSH4 0xB4E6B713 EQ PUSH2 0x59 JUMPI JUMPDEST PUSH1 0x0 DUP1 REVERT JUMPDEST PUSH2 0x43 PUSH2 0x89 JUMP JUMPDEST PUSH1 0x40 MLOAD PUSH2 0x50 SWAP2 SWAP1 PUSH2 0x2E8 JUMP JUMPDEST PUSH1 0x40 MLOAD DUP1 SWAP2 SUB SWAP1 RETURN JUMPDEST PUSH2 0x73 PUSH1 0x4 DUP1 CALLDATASIZE SUB DUP2 ADD SWAP1 PUSH2 0x6E SWAP2 SWAP1 PUSH2 0x244 JUMP JUMPDEST PUSH2 0x11B JUMP JUMPDEST PUSH1 0x40 MLOAD PUSH2 0x80 SWAP2 SWAP1 PUSH2 0x2CD JUMP JUMPDEST PUSH1 0x40 MLOAD DUP1 SWAP2 SUB SWAP1 RETURN JUMPDEST PUSH1 0x60 PUSH1 0x0 DUP1 SLOAD PUSH2 0x98 SWAP1 PUSH2 0x3D5 JUMP JUMPDEST DUP1 PUSH1 0x1F ADD PUSH1 0x20 DUP1 SWAP2 DIV MUL PUSH1 0x20 ADD PUSH1 0x40 MLOAD SWAP1 DUP2 ADD PUSH1 0x40 MSTORE DUP1 SWAP3 SWAP2 SWAP1 DUP2 DUP2 MSTORE PUSH1 0x20 ADD DUP3 DUP1 SLOAD PUSH2 0xC4 SWAP1 PUSH2 0x3D5 JUMP JUMPDEST DUP1 ISZERO PUSH2 0x111 JUMPI DUP1 PUSH1 0x1F LT PUSH2 0xE6 JUMPI PUSH2 0x100 DUP1 DUP4 SLOAD DIV MUL DUP4 MSTORE SWAP2 PUSH1 0x20 ADD SWAP2 PUSH2 0x111 JUMP JUMPDEST DUP3 ADD SWAP2 SWAP1 PUSH1 0x0 MSTORE PUSH1 0x20 PUSH1 0x0 KECCAK256 SWAP1 JUMPDEST DUP2 SLOAD DUP2 MSTORE SWAP1 PUSH1 0x1 ADD SWAP1 PUSH1 0x20 ADD DUP1 DUP4 GT PUSH2 0xF4 JUMPI DUP3 SWAP1 SUB PUSH1 0x1F AND DUP3 ADD SWAP2 JUMPDEST POP POP POP POP POP SWAP1 POP SWAP1 JUMP JUMPDEST PUSH1 0x0 DUP2 PUSH1 0x0 SWAP1 DUP1 MLOAD SWAP1 PUSH1 0x20 ADD SWAP1 PUSH2 0x133 SWAP3 SWAP2 SWAP1 PUSH2 0x139 JUMP JUMPDEST POP SWAP2 SWAP1 POP JUMP JUMPDEST DUP3 DUP1 SLOAD PUSH2 0x145 SWAP1 PUSH2 0x3D5 JUMP JUMPDEST SWAP1 PUSH1 0x0 MSTORE PUSH1 0x20 PUSH1 0x0 KECCAK256 SWAP1 PUSH1 0x1F ADD PUSH1 0x20 SWAP1 DIV DUP2 ADD SWAP3 DUP3 PUSH2 0x167 JUMPI PUSH1 0x0 DUP6 SSTORE PUSH2 0x1AE JUMP JUMPDEST DUP3 PUSH1 0x1F LT PUSH2 0x180 JUMPI DUP1 MLOAD PUSH1 0xFF NOT AND DUP4 DUP1 ADD OR DUP6 SSTORE PUSH2 0x1AE JUMP JUMPDEST DUP3 DUP1 ADD PUSH1 0x1 ADD DUP6 SSTORE DUP3 ISZERO PUSH2 0x1AE JUMPI SWAP2 DUP3 ADD JUMPDEST DUP3 DUP2 GT ISZERO PUSH2 0x1AD JUMPI DUP3 MLOAD DUP3 SSTORE SWAP2 PUSH1 0x20 ADD SWAP2 SWAP1 PUSH1 0x1 ADD SWAP1 PUSH2 0x192 JUMP JUMPDEST JUMPDEST POP SWAP1 POP PUSH2 0x1BB SWAP2 SWAP1 PUSH2 0x1BF JUMP JUMPDEST POP SWAP1 JUMP JUMPDEST JUMPDEST DUP1 DUP3 GT ISZERO PUSH2 0x1D8 JUMPI PUSH1 0x0 DUP2 PUSH1 0x0 SWAP1 SSTORE POP PUSH1 0x1 ADD PUSH2 0x1C0 JUMP JUMPDEST POP SWAP1 JUMP JUMPDEST PUSH1 0x0 PUSH2 0x1EF PUSH2 0x1EA DUP5 PUSH2 0x33B JUMP JUMPDEST PUSH2 0x30A JUMP JUMPDEST SWAP1 POP DUP3 DUP2 MSTORE PUSH1 0x20 DUP2 ADD DUP5 DUP5 DUP5 ADD GT ISZERO PUSH2 0x207 JUMPI PUSH1 0x0 DUP1 REVERT JUMPDEST PUSH2 0x212 DUP5 DUP3 DUP6 PUSH2 0x393 JUMP JUMPDEST POP SWAP4 SWAP3 POP POP POP JUMP JUMPDEST PUSH1 0x0 DUP3 PUSH1 0x1F DUP4 ADD SLT PUSH2 0x22B JUMPI PUSH1 0x0 DUP1 REVERT JUMPDEST DUP2 CALLDATALOAD PUSH2 0x23B DUP5 DUP3 PUSH1 0x20 DUP7 ADD PUSH2 0x1DC JUMP JUMPDEST SWAP2 POP POP SWAP3 SWAP2 POP POP JUMP JUMPDEST PUSH1 0x0 PUSH1 0x20 DUP3 DUP5 SUB SLT ISZERO PUSH2 0x256 JUMPI PUSH1 0x0 DUP1 REVERT JUMPDEST PUSH1 0x0 DUP3 ADD CALLDATALOAD PUSH8 0xFFFFFFFFFFFFFFFF DUP2 GT ISZERO PUSH2 0x270 JUMPI PUSH1 0x0 DUP1 REVERT JUMPDEST PUSH2 0x27C DUP5 DUP3 DUP6 ADD PUSH2 0x21A JUMP JUMPDEST SWAP2 POP POP SWAP3 SWAP2 POP POP JUMP JUMPDEST PUSH2 0x28E DUP2 PUSH2 0x387 JUMP JUMPDEST DUP3 MSTORE POP POP JUMP JUMPDEST PUSH1 0x0 PUSH2 0x29F DUP3 PUSH2 0x36B JUMP JUMPDEST PUSH2 0x2A9 DUP2 DUP6 PUSH2 0x376 JUMP JUMPDEST SWAP4 POP PUSH2 0x2B9 DUP2 DUP6 PUSH1 0x20 DUP7 ADD PUSH2 0x3A2 JUMP JUMPDEST PUSH2 0x2C2 DUP2 PUSH2 0x465 JUMP JUMPDEST DUP5 ADD SWAP2 POP POP SWAP3 SWAP2 POP POP JUMP JUMPDEST PUSH1 0x0 PUSH1 0x20 DUP3 ADD SWAP1 POP PUSH2 0x2E2 PUSH1 0x0 DUP4 ADD DUP5 PUSH2 0x285 JUMP JUMPDEST SWAP3 SWAP2 POP POP JUMP JUMPDEST PUSH1 0x0 PUSH1 0x20 DUP3 ADD SWAP1 POP DUP2 DUP2 SUB PUSH1 0x0 DUP4 ADD MSTORE PUSH2 0x302 DUP2 DUP5 PUSH2 0x294 JUMP JUMPDEST SWAP1 POP SWAP3 SWAP2 POP POP JUMP JUMPDEST PUSH1 0x0 PUSH1 0x40 MLOAD SWAP1 POP DUP2 DUP2 ADD DUP2 DUP2 LT PUSH8 0xFFFFFFFFFFFFFFFF DUP3 GT OR ISZERO PUSH2 0x331 JUMPI PUSH2 0x330 PUSH2 0x436 JUMP JUMPDEST JUMPDEST DUP1 PUSH1 0x40 MSTORE POP SWAP2 SWAP1 POP JUMP JUMPDEST PUSH1 0x0 PUSH8 0xFFFFFFFFFFFFFFFF DUP3 GT ISZERO PUSH2 0x356 JUMPI PUSH2 0x355 PUSH2 0x436 JUMP JUMPDEST JUMPDEST PUSH1 0x1F NOT PUSH1 0x1F DUP4 ADD AND SWAP1 POP PUSH1 0x20 DUP2 ADD SWAP1 POP SWAP2 SWAP1 POP JUMP JUMPDEST PUSH1 0x0 DUP2 MLOAD SWAP1 POP SWAP2 SWAP1 POP JUMP JUMPDEST PUSH1 0x0 DUP3 DUP3 MSTORE PUSH1 0x20 DUP3 ADD SWAP1 POP SWAP3 SWAP2 POP POP JUMP JUMPDEST PUSH1 0x0 DUP2 ISZERO ISZERO SWAP1 POP SWAP2 SWAP1 POP JUMP JUMPDEST DUP3 DUP2 DUP4 CALLDATACOPY PUSH1 0x0 DUP4 DUP4 ADD MSTORE POP POP POP JUMP JUMPDEST PUSH1 0x0 JUMPDEST DUP4 DUP2 LT ISZERO PUSH2 0x3C0 JUMPI DUP1 DUP3 ADD MLOAD DUP2 DUP5 ADD MSTORE PUSH1 0x20 DUP2 ADD SWAP1 POP PUSH2 0x3A5 JUMP JUMPDEST DUP4 DUP2 GT ISZERO PUSH2 0x3CF JUMPI PUSH1 0x0 DUP5 DUP5 ADD MSTORE JUMPDEST POP POP POP POP JUMP JUMPDEST PUSH1 0x0 PUSH1 0x2 DUP3 DIV SWAP1 POP PUSH1 0x1 DUP3 AND DUP1 PUSH2 0x3ED JUMPI PUSH1 0x7F DUP3 AND SWAP2 POP JUMPDEST PUSH1 0x20 DUP3 LT DUP2 EQ ISZERO PUSH2 0x401 JUMPI PUSH2 0x400 PUSH2 0x407 JUMP JUMPDEST JUMPDEST POP SWAP2 SWAP1 POP JUMP JUMPDEST PUSH32 0x4E487B7100000000000000000000000000000000000000000000000000000000 PUSH1 0x0 MSTORE PUSH1 0x22 PUSH1 0x4 MSTORE PUSH1 0x24 PUSH1 0x0 REVERT JUMPDEST PUSH32 0x4E487B7100000000000000000000000000000000000000000000000000000000 PUSH1 0x0 MSTORE PUSH1 0x41 PUSH1 0x4 MSTORE PUSH1 0x24 PUSH1 0x0 REVERT JUMPDEST PUSH1 0x0 PUSH1 0x1F NOT PUSH1 0x1F DUP4 ADD AND SWAP1 POP SWAP2 SWAP1 POP JUMP INVALID LOG2 PUSH5 0x6970667358 0x22 SLT KECCAK256 LOG2 0xB4 PUSH11 0x116E56D6CCAD3C4013BA3A 0xC1 RETURNDATACOPY PUSH7 0x5ED9BD26F609E6 0xE PUSH29 0x407F25AF7D8064736F6C63430008000033000000000000000000000000 "
				},
				"gasEstimates": {
					"creation": {
						"codeDepositCost": "239200",
						"executionCost": "281",
						"totalCost": "239481"
					},
					"external": {
						"printhelloworld()": "infinite",
						"writestatement(string)": "infinite"
					}
				},
				"methodIdentifiers": {
					"printhelloworld()": "319bf8b5",
					"writestatement(string)": "b4e6b713"
				}
			},
			"userdoc": {
				"kind": "user",
				"methods": {},
				"version": 1
			}
		}
	}
}